:020000040800F2
:100000006010002035220008192100081B2100087B
:100010001D2100081F210008212100080000000008
:100020000000000000000000000000002321000884
:1000300025210008000000002721000829210008D0
:100040005122000855220008592200085D220008AC
:100050006122000865220008692200086D2200085C
:100060007122000875220008792200087D2200080C
:100070008122000885220008892200088D220008BC
:100080009122000895220008992200089D2200086C
:10009000A1220008A5220008A9220008AD2200081C
:1000A000B1220008B5220008B9220008BD220008CC
:1000B000C1220008C5220008C9220008CD2200087C
:1000C000D1220008D5220008D9220008DD2200082C
:1000D000E1220008E5220008E9220008ED220008DC
:1000E000F1220008F5220008F9220008FD2200088C
:1000F0000123000805230008352100080923000812
:100100000D230008112300081523000819230008F7
:100110001D230008212300082523000829230008A7
:100120002D23000831230008352300083923000857
:100130003D23000841230008452300084923000807
:100140004D230008512300085523000859230008B7
:100150005D23000861230008652300086923000867
:100160006D23000871230008752300087923000817
:100170007D2300088123000885230008000000007B
:10018000892300088D23000810B50400002C01D13C
:10019000012014E094F93900002805D1002084F8EA
:1001A0003800200000F011FE022084F83900211DE3
:1001B000206800F05BFA012084F83900002010BDAF
:1001C000022180F839100168096851F001010268C4
:1001D0001160012180F839100020704710B504002B
:1001E000002C01D1012014E094F93900002805D138
:1001F000002084F83800200000F00CF8022084F879
:100200003900211D206800F031FA012084F83900FE
:10021000002010BD704710B504000800002806D06B
:1002200004280BD0082810D00C2815D01BE020681B
:10023000C06850F002002268D06014E02068C068F6
:1002400050F004002268D0600DE02068C06850F0D3
:1002500008002268D06006E02068C06850F01000F6
:100260002268D060FFE70122206800F0ACFA206825
:10027000DFF8FC10884204D02068DFF8F8108842CC
:1002800001D1012000E00020C0B2002805D0206884
:10029000406C50F40040216848642068006850F0C9
:1002A000010021680860002010BD10B5040008009E
:1002B000002806D004280BD0082810D00C2815D010
:1002C0001BE02068C06830F002002268D06014E0B3
:1002D0002068C06830F004002268D0600DE020681B
:1002E000C06830F008002268D06006E02068C0686E
:1002F00030F010002268D060FFE70022206800F094
:1003000062FA2068DFF86810884204D02068DFF8BD
:100310006410884201D1012000E00020C0B2002812
:1003200011D02068006A41F2111108420BD12068F7
:10033000006A40F24441084205D12068406C30F424
:100340000040216848642068006A41F211110842A7
:100350000BD12068006A40F24441084205D1206870
:1003600000684008400021680860002010BD0000BF
:10037000000001400004014010B50400206800693D
:1003800080071AD52068C068800716D57FF0020064
:1003900021680861012020762068806910F0030F31
:1003A00003D0200000F05FF905E0200000F03AFFE4
:1003B000200000F059F900202076206800694007ED
:1003C0001AD52068C068400716D57FF00400216860
:1003D0000861022020762068806910F4407F03D0F5
:1003E000200000F040F905E0200000F01BFF200095
:1003F00000F03AF9002020762068006900071AD53D
:100400002068C068000716D57FF0080021680861E1
:10041000042020762068C06910F0030F03D020006C
:1004200000F021F905E0200000F0FCFE200000F0C3
:100430001BF90020207620680069C0061AD52068C4
:10044000C068C00616D57FF010002168086108203A
:1004500020762068C06910F4407F03D0200000F0AF
:1004600002F905E0200000F0DDFE200000F0FCF8BD
:100470000020207620680069C0070AD52068C0687F
:10048000C00706D57FF0010021680861200000F058
:10049000E9F82068006900060AD52068C0680006EF
:1004A00006D57FF0800021680861200000F07AFF07
:1004B0002068006940060AD52068C068400606D555
:1004C0007FF0400021680861200000F0CEF820682D
:1004D000006980060AD52068C068800606D57FF0CE
:1004E000200021680861200000F05BFF10BD10B5FE
:1004F000040094F93800012801D1022025E00120F0
:1005000084F83800022084F83900002A06D0042A32
:1005100008D0082A0AD00C2A0CD00FE0206800F07E
:1005200062F90BE0206800F013F907E0206800F0A2
:1005300090F903E0206800F0C6F9FFE7012084F895
:100540003900002084F83800002010BD10B50400E8
:10055000002094F93800012801D1022081E0012017
:1005600084F83800022084F839002068806830F070
:10057000770030F47F40226890600868002855D0EA
:10058000102858D020285BD030285ED0402843D097
:1005900050282DD0602835D070280DD0B0F5805F60
:1005A00003D0B0F5005F16D054E020688068C00822
:1005B000C000216888604DE0CB684A68896820687F
:1005C00000F0FBF92068806830F0770050F0770089
:1005D000216888603EE0CB684A688968206800F03E
:1005E000ECF92068806850F480402168886031E030
:1005F000CA684968206800F0ADF95021206800F011
:10060000D2F927E0CA684968206800F0B7F960218C
:10061000206800F0C8F91DE0CA684968206800F049
:1006200099F94021206800F0BEF913E0002120680C
:1006300000F0B9F90EE01021206800F0B4F909E0EB
:100640002021206800F0AFF904E03021206800F09C
:10065000AAF9FFE7012084F83900002084F8380067
:10066000002010BD70477047704770470022026835
:10067000DFF8B432984212D0B0F1804F0FD0DFF8DB
:10068000AC3298420BD0DFF8A832984207D0DFF89E
:10069000A432984203D0DFF8A032984201D101235E
:1006A00000E00023DBB2002B03D032F070024B6875
:1006B0001A43DFF8743298422AD0B0F1804F27D025
:1006C000DFF86832984223D0DFF8643298421FD0B6
:1006D000DFF8603298421BD0DFF85C32984217D0C6
:1006E000DFF85832984213D0DFF8543298420FD0D6
:1006F000DFF8503298420BD0DFF84C32984207D0E6
:10070000DFF84832984203D0DFF84432984201D1F2
:10071000012300E00023DBB2002B03D032F440724F
:10072000CB681A4302608A68C2620A6882627E4AA3
:10073000904202D0804A904201D1012200E0002282
:10074000D2B2002A01D009690163012141617047D9
:1007500030B4002200230024026A32F01002026248
:10076000036A4468826932F4E04232F440720D68F0
:1007700052EA052233F020038D6853EA05136A4DCF
:10078000A84202D06C4DA84201D1012500E000250D
:10079000EDB2002D10D033F08003CD6853EA05137D
:1007A00033F0400334F4806434F400644D6954EA57
:1007B00085048D6954EA85044460826149688163D7
:1007C000036230BC704710B4002301238B40046ADD
:1007D00034EA03030362036A12FA01F11943016266
:1007E00010BC7047000030B4002200230024026ACD
:1007F000520852000262036A4468826932F0700251
:10080000920892000D682A4333F002038D682B434F
:10081000454DA84202D0484DA84201D1012500E033
:100820000025EDB2002D0DD033F00803CD682B4329
:1008300033F0040334F4807434F400744D692C43B1
:100840008D692C434460826149684163036230BC16
:10085000704730B4002200230024026A32F4807210
:100860000262036A4468C26932F070029208920020
:100870000D682A4333F400738D6853EA05232A4D2B
:10088000A84202D02C4DA84201D1012500E000254C
:10089000EDB2002D10D033F40063CD6853EA052388
:1008A00033F4806334F4805434F400544D6954EAD2
:1008B00005148D6954EA05144460C2614968C16336
:1008C000036230BC704730B4002200230024026A67
:1008D00032F480520262036A4468C26932F4E04230
:1008E00032F440720D6852EA052233F400538D68E9
:1008F00053EA05330C4DA84202D00F4DA84201D156
:10090000012500E00025EDB2002D04D034F4804430
:100910004D6954EA85144460C26149680164036208
:1009200030BC70470000000000000140000400409F
:1009300000080040000C004000040140004001405D
:10094000004401400048014000180040001C0040E5
:100950000020004010B400230024046A036A5B08EE
:100960005B000362836933F0F00353EA021334F04F
:100970000A040C438361046210BC704710B4002366
:100980000024036A33F0100303628369046A33F4BA
:10099000704353EA023334F0A00454EA0114836133
:1009A000046210BC70470022826832F0700289B283
:1009B00051F007010A438260704710B40024846834
:1009C00034F47F44114351EA03210C43846010BC8A
:1009D0007047000000B587B000200090DFF81404D5
:1009E000006850F48070DFF80C140860DFF804042D
:1009F000006810F480700090009800200090DFF8EC
:100A0000F403006850F00800DFF8E8130860DFF82E
:100A1000E403006810F008000090009800200090A7
:100A2000DFF8D003006850F00800DFF8C813086052
:100A3000DFF8C003006810F0080000900098002064
:100A40000090DFF8B003006850F48070DFF8A41362
:100A50000860DFF8A003006810F480700090009830
:100A600000200090DFF88C03006850F00800DFF8E9
:100A700084130860DFF87C03006810F00800009021
:100A8000009800200090DFF86C03006850F0200010
:100A9000DFF860130860DFF85C03006810F02000E6
:100AA0000090009800200090DFF84803006850F4A0
:100AB0008070DFF840130860DFF83803006810F436
:100AC00080700090009800200090DFF828030068F4
:100AD00050F02000DFF81C130860DFF818030068EE
:100AE00010F020000090009800200090DFF8040330
:100AF000006850F02000DFF8FC120860DFF8F40214
:100B0000006810F020000090009800200090DFF8AE
:100B1000E402006850F48070B6490860B548006887
:100B200010F480700090009800200090B148006898
:100B300050F00400AF490860AE48006810F00400AF
:100B40000090009800200090AA48006850F08000B3
:100B5000A8490860A748006810F08000009000983D
:100B60002020019002200290022004900320059092
:100B700001A9A14800F018FC082001900120029072
:100B8000022004900020059001A99C4800F00CFC74
:100B90008020019001200290022004900020059006
:100BA00001A9964800F000FC40200190022002902C
:100BB000022004900320059001A98F4800F0F4FB67
:100BC0004FF4006001900120029002200490002068
:100BD000059001A9894800F0E7FB4FF400600190FF
:100BE00001200290022004900020059001A9844871
:100BF00000F0DAFB80200190022002900220049095
:100C00000320059001A97C4800F0CEFB0220019052
:100C100001200290022004900020059001A978484C
:100C200000F0C2FB042001900120029002200490F9
:100C30000020059001A9724800F0B6FB0420019045
:100C400002200290022004900320059001A96A4826
:100C500000F0AAFB4FF48070019001200290022066
:100C600004900020059001A9664800F09DFB8020BB
:100C7000019001200290022004900020059001A91B
:100C8000614800F091FB012208215C4800F082FCE1
:100C900000228021594800F07DFC01224FF40061C0
:100CA000564800F077FC00224FF40061544800F0F1
:100CB00071FC01220221524800F06CFC0022042148
:100CC0004F4800F067FC01224FF480714D4800F05E
:100CD00061FC002280214C4800F05CFC07B000BDA4
:100CE00000B595B049484A49086005204849486020
:100CF0000020474988604FF6FF704549C8600020D2
:100D0000434908610020424948614148FFF73CFAE5
:100D10004FF48050109010A93D48FFF717FC3C4855
:100D2000FFF75CFA002007900020089007A93848D8
:100D300000F0DAFA0020099000200A9000200B90C1
:100D400000200C9000200D904FF400500E900020D9
:100D50000F9009A92E4800F0F3FA302000902D489A
:100D60000088019000200290082003900020049049
:100D70000020059000200690002269462448FFF7D5
:100D8000B6FB244840880190042269462048FFF7BA
:100D9000AEFB204880880190082269461C48FFF776
:100DA000A6FB1C48C08801900C2269461848FFF732
:100DB0009EFBFFF70FFE002200212E2000F078FCA2
:100DC0002E2000F086FC15B000BD81B000680F49F0
:100DD00088420DD1002000900F48006850F00200BA
:100DE0000D4908600C48006810F00200009000985F
:100DF00001B070473038024000200240000C024031
:100E00000014024000080240001C0240000401409F
:100E10000C000020000000204438024000B593B0D0
:100E200000200090DFF88C04006850F08050DFF85C
:100E300084140860DFF87C04006810F08050009093
:100E4000009800200090DFF87004006850F48040A3
:100E5000DFF864140860DFF86004006810F4804074
:100E600000900098012006905FF4803007900220E7
:100E70000C905FF480000D9008200E904FF4A87045
:100E80000F90022010900720119006A800F052FC4D
:100E90000F20019002200290002003904FF4A050F8
:100EA00004904FF480500590052101A800F036FE13
:100EB00000F00DFF00F055FF4FF47A71B0FBF1F038
:100EC00000F00CFC042000F00DFC002200215FF07B
:100ED000FF3000F0EDFB13B000BD80B500F066FF01
:100EE000FFF79CFF00F0B0FFFFF7FAFEDFF8CC033E
:100EF000FFF766F90021DFF8C403FFF78CF904213E
:100F0000DFF8B803FFF787F90821DFF8B003FFF730
:100F100082F90C21DFF8A403FFF77DF900220021FC
:100F2000DFF89C03FFF74FFC00220421DFF8900359
:100F3000FFF749FC00220821DFF88403FFF743FC98
:100F400000220C21DFF87803FFF73DFC59E0012275
:100F50008021DFF8700300F01DFB01224FF40061D7
:100F6000DFF8640300F016FB01220421DFF85803C8
:100F700000F010FB01228021DFF8500300F00AFB93
:100F80000021DFF83803FFF790F90421DFF82C0384
:100F9000FFF78BF90821DFF82403FFF786F90C210E
:100FA000DFF81803FFF781F90120DFF82413087038
:100FB000DFF820030068B0F5FA2F04D300220021E7
:100FC000BF48FFF700FCC3484068C349884204D3C8
:100FD00000220421BA48FFF7F6FBBE488068B0F54E
:100FE0007A3F04D300220821B548FFF7ECFBB9484B
:100FF000C068B0F5FA3F04D300220C21B048FFF7D7
:10100000E2FB00F07DFF012822D10020B1490860F9
:101010000020B04948600020AE4988600020AD49FA
:10102000C8600020AA49087001220021A448FFF7E7
:10103000CAFB01220421A248FFF7C5FB01220821B7
:101040009F48FFF7C0FB01220C219D48FFF7BBFB27
:1010500000F070FF012837D1A048008832389F493E
:1010600008809E480088B0F5967F03DA4FF49670AA
:101070009A4908809948408832389849488097486A
:101080004088B0F5967F03DA4FF496709349488014
:101090009248808832389149888090488088B0F59D
:1010A000967F03DA4FF496708C4988808B48C0880D
:1010B00032388A49C8808948C088B0F5967F03DAFB
:1010C0004FF496708549C88000F04EFF01283BD14F
:1010D000824800886430814908808048008840F652
:1010E000AD51884203DB40F6AC507C4908807B4818
:1010F00040886430794948807848408840F6AD514E
:10110000884203DB40F6AC507449488073488088BD
:101110006430724988807148808840F6AD518842B9
:1011200003DB40F6AC506D4988806C48C088643061
:101130006A49C8806948C08840F6AD51884203DBDF
:1011400040F6AC506549C88000F028FF012836D130
:1011500063480078002819D100220821594800F07E
:1011600019FA00224FF40061564800F013FA0022E9
:101170000221554800F00EFA00224FF480715948C0
:1011800000F008FA01205649087018E001220821F1
:101190004C4800F0FFF901224FF40061494800F08B
:1011A000F9F901220221484800F0F4F901224FF434
:1011B00080714C4800F0EEF900204949087000F0B9
:1011C00007FF01287FF4F4AE4148007801287FF43E
:1011D000BEAE002280213B4800F0DCF900224FF433
:1011E0000061394800F0D6F900220421364800F0A9
:1011F000D1F900228021354800F0CCF900212F4898
:10120000FFF709F804212D48FFF705F808212B48BE
:10121000FFF701F80C212948FEF7FDFF00202C49BB
:101220000870C5E625490968496A90F91820012A1D
:101230000CD12A4A128811FA82F292B21F4B1B6813
:101240005A63244A1268521C224B1A6090F91820E3
:10125000022A0CD1214A528811FA82F292B2174B1B
:101260001B689A631B4A5268521C1A4B5A6090F9C9
:101270001820042A0CD1194A928811FA82F292B2EB
:101280000E4B1B68DA63134A9268521C114B9A602A
:1012900090F9180008280CD11048C08811FA80F085
:1012A00082B20648006802640A48C068401C0949C6
:1012B000C860704740380240007000400C000020B9
:1012C00000040140000C024000140240001C0240D7
:1012D0005D0000204800002000DC05000000002028
:1012E0005C0000200008024090F93820012A01D15A
:1012F000022024E0012280F83820022280F83920E0
:101300000268526832F0700203685A6002685268DC
:101310000B681A4303685A600268926832F08002D0
:1013200003689A6002689268496811430268916094
:10133000012180F83910002180F838100020704712
:10134000002290F93830012B01D1022028E001233E
:1013500080F83830120A1202CB681A4332F4407215
:101360008B681A4332F480624B681A4332F400628D
:101370000B681A4332F480520B691A4332F400525C
:101380004B691A4332F480428B691A4332F40042AB
:1013900089690A4301684A64002180F838100020F6
:1013A000704770477047000078B400240023002481
:1013B000002237E00825EDB212F00306F6B2B600BF
:1013C000B5402C43DFF8E051960845F82640DFF899
:1013D000DC4124689C434D68ED0300D51C43DFF8D5
:1013E000CC512C60DFF8C84124689C434D68AD03A4
:1013F00000D51C43DFF8B8512C60DFF8B8412468F1
:101400009C434D68ED0200D51C43DFF8A8512C60C9
:10141000694C24689C434D68AD0200D51C43664B63
:101420001C60521C102A80F0AA80012313FA02F4D7
:101430000B682340A342F4D14C68022C02D04C68C4
:10144000122C15D1D40810EB8404246A0F2512F055
:101450000706F6B2B600B540AC430D6912F00706B8
:10146000F6B2B600B5402C43D50810EB85052C62CA
:10147000046803251600F6B27600B540AC430D793A
:1014800015F003051600F6B27600B5402C43046053
:101490004C68012C08D04C68022C05D04C68112CEB
:1014A00002D04C68122C17D1846803251600F6B2BE
:1014B0007600B540AC43CD681600F6B27600B54074
:1014C0002C438460446801259540AC434D68C5F3C6
:1014D000001595402C434460C46803251600F6B2FD
:1014E0007600B540AC438D681600F6B27600B54084
:1014F0002C43C4604C68E40093D5002400942F4C26
:10150000246854F480442D4D2C602C4C246814F431
:1015100080440094009C244C950854F825400F25E5
:1015200012F00306F6B2B600B540AC43244DA84213
:1015300001D100253FE7234DA84201D101253AE71B
:10154000214DA84201D1022535E7204DA84201D105
:10155000032530E71E4DA84201D104252BE71D4D80
:10156000A84201D1052526E71B4DA84201D1062539
:1015700021E71A4DA8427FF41DAF07251BE771BC78
:101580007047006989B2084201D0012000E00020C4
:1015900040B2704752B2002A02D089B2816102E0A3
:1015A00089B209048161704708380140003C01405C
:1015B000043C0140083C01400C3C014044380240DE
:1015C000000002400004024000080240000C0240FB
:1015D000001002400014024000180240001C0240AB
:1015E00010F00701484800684FF6FF021040474AD4
:1015F00052EA0121084344490860704742480068A4
:10160000C0F302207047012110F01F029140404AB0
:1016100040B2400942F82010704740B2002808D577
:1016200009013C4A40B210F00F00801800F8041C79
:1016300003E00901384A40B28154704710B410F0F9
:101640000700D0F10703052B01D3042301E0D0F1FB
:101650000703041D072C01D2002000E0C01E012456
:1016600014FA03F35B1E19408140012313FA00F0C2
:10167000401E1040084310BC704780B5411EB1F1B8
:10168000807F01D301200EE0401E244908600F2115
:101690005FF0FF30FFF7C1FF0020214908600720FD
:1016A00020490860002002BD80B5FFF799FF01BD09
:1016B00070B504000D0016000020FFF79FFF3200F8
:1016C0002900FFF7BBFF0100200040B2FFF7A5FF94
:1016D00070BD80B540B2FFF796FF01BD80B5FFF742
:1016E000CCFF02BD042806D10E48006850F004006B
:1016F0000C49086005E00B48006830F00400094917
:1017000008607047000000000CED00E00000FA05E2
:1017100000E100E018ED00E000E400E014E000E08B
:1017200018E000E010E000E080B500F001F801BD35
:101730007047000038B5040000252078C0076FD539
:10174000DFF82406006810F00C0004280BD0DFF846
:101750001806006810F00C0008280ED1DFF80C06FF
:101760000068400209D5DFF808060068800357D5F5
:101770006068002854D10120CFE16068B0F5803F57
:1017800008D1DFF8EC05006850F48030DFF8E01590
:10179000086024E06068B0F5A02F10D1DFF8D00514
:1017A000006850F48020DFF8C8150860DFF8C00535
:1017B000006850F48030DFF8B81508600FE0DFF8FB
:1017C000B005006830F48030DFF8A4150860DFF859
:1017D000A005006830F48020DFF894150860606888
:1017E00000280ED000F017FB0500DFF88405006824
:1017F000800315D400F00FFB401B6528F5D30320B0
:101800008BE100F008FB0500DFF864050068800349
:1018100006D500F000FB401B6528F5D303207CE1D2
:10182000207880072BD5DFF84005006810F00C0FFA
:101830000BD0DFF83405006810F00C00082837D111
:10184000DFF828050068400232D4DFF8240500687C
:10185000800704D5E068012801D001205DE1DFF8B0
:10186000100500685FF0F851B1FA81F130F0F8002E
:10187000226912FA01F10843DFF8F41408602078B5
:10188000000762D5606900284CD00120DFF8E4141D
:10189000086000F0C0FA0500DFF8DC04006880078B
:1018A00053D400F0B8FA401B0328F5D3032034E1E9
:1018B000E068002823D00120DFF8C014086000F0A1
:1018C000AAFA0500DFF8A8040068800706D400F033
:1018D000A2FA401B0328F5D303201EE1DFF8900491
:1018E00000685FF0F851B1FA81F130F0F800226938
:1018F00012FA01F10843DFF878140860BFE700200E
:10190000DFF87814086000F086FA0500DFF860045C
:1019100000688007B3D500F07EFA401B0328F5D39A
:101920000320FAE00020DFF84C14086000F073FA9E
:101930000500DFF844040068800706D500F06BFA64
:10194000401B0328F5D30320E7E0207840077CD52F
:1019500000200090DFF82804006850F08050DFF885
:1019600020140860DFF81804006810F08050009020
:101970000098DFF81004006850F48070DFF8041459
:10198000086000F048FA0500DFF8F8030068C005B9
:1019900006D400F040FA401B0328F5D30320BCE036
:1019A000A068012808D1DFF8E003006850F00100CA
:1019B000DFF8D413086023E0A068052810D1DFF811
:1019C000C803006850F00400DFF8BC130860DFF8BB
:1019D000B803006850F00100DFF8AC1308600FE0B6
:1019E000DFF8A403006840084000DFF89C1308609B
:1019F000DFF89403006830F00400DFF88C1308600F
:101A0000A068002810D000F006FA0500DFF878037F
:101A10000068800719D400F0FEF9401B41F28931BB
:101A20008842F3D3032078E000F0F5F90500DFF8F1
:101A300058030068800708D500F0EDF9401B41F21B
:101A400089318842F3D3032067E0A069002863D07E
:101A5000DFF81403006810F00C0008285AD0A069C1
:101A6000022844D10020DFF82413086000F0D3F9E5
:101A70000500DFF8FC020068800106D500F0CBF914
:101A8000401B0328F5D3032047E0DFF80403B0FA36
:101A900080F14FF44040B0FA80F2F020B0FA80F0CC
:101AA000E369256A2B43656A15FA01F11943A36AB4
:101AB0005B085B1E13FA02F21143E26A12FA00F0AD
:101AC0000843DFF8A81208600120DFF8C0120860A0
:101AD00000F0A1F90500DFF89802006880011BD42E
:101AE00000F099F9401B0328F5D3032015E00020EE
:101AF000DFF89812086000F08EF90500DFF8700238
:101B00000068800108D500F086F9401B0328F5D352
:101B1000032002E0012000E0002032BD70B5040087
:101B20000D000026DFF86C02006810F00F00A842DC
:101B30000BD2DFF860020570DFF85802006810F081
:101B40000F00A84201D00120C0E02078800709D50D
:101B5000DFF81402006830F0F000A1680843DFF8F5
:101B6000081208602078C00772D56068012806D185
:101B7000DFF8FC010068800315D40120A6E060684E
:101B8000022802D06068032806D1DFF8E40100686B
:101B9000800108D4012099E0DFF8D40100688007B3
:101BA00001D4012092E0DFF8C001006880088000C5
:101BB00061680843DFF8B011086000F02CF90600F6
:101BC000606801280FD1DFF8A001006810F00C0058
:101BD00004283DD000F01FF9801B41F28931884272
:101BE000F1D3032072E0606802280FD1DFF878019A
:101BF000006810F00C0008282AD000F00CF9801BB7
:101C000041F289318842F1D303205FE06068032804
:101C10000FD1DFF85401006810F00C000C2817D029
:101C200000F0F9F8801B41F289318842F1D303209A
:101C30004CE0DFF83401006810F00C0F08D000F021
:101C4000EAF8801B41F289318842F2D303203DE05B
:101C5000DFF84001006810F00F0085420BD2DFF87A
:101C600034010570DFF82C01006810F00F00A84265
:101C700001D001202AE02078400707D53A480068C3
:101C800030F4E050E16808433749086020780007E5
:101C900008D53548006830F46040216950EAC10039
:101CA0003149086000F017F82F4909685FF0706249
:101CB000B2FA82F2384B11F0F001D140C95CC84051
:101CC00036490860002000F08EF8002070BD012029
:101CD000334908607047002000200021002022487E
:101CE000006810F00C00002804D0042804D0082854
:101CF00004D034E02B4833E02B4831E01B48006827
:101D000010F03F001949096849020DD517490968C3
:101D1000254AB2FBF0F047F6C07211401C4AB2FAF5
:101D200082F2D14048430CE0104909681D4AB2FBD9
:101D3000F0F047F6C0721140154AB2FA82F2D14073
:101D400048430A49096811F440314FF44042B2FA5D
:101D500082F2D140491C4900B0FBF1F000E011488B
:101D600070470E4800687047083802400438024047
:101D700000380240800E474274380240000047425B
:101D80004038024000700040703802406000474216
:101D90000000FE03003C024024220008080000204E
:101DA0004C0047420024F40000127A0080B523481A
:101DB000006850F40070214908602048006850F421
:101DC00080601E4908601D48006850F480701B49FF
:101DD00008600320FFF768FC002000F004F800F022
:101DE00015F9002002BD10B50400154800684FF435
:101DF0007A71B0FBF1F0FFF771FC002221005FF077
:101E0000FF30FFF755FC002010BD0E480068401C55
:101E10000C49086070470B480068704731B5FFF700
:101E2000FAFF0400009D15F1010F00D06D1CFFF7B3
:101E3000F2FF001BA842FAD331BD0000003C024073
:101E4000080000205800002000B587B00020009056
:101E50006C48006850F010006A49086069480068E2
:101E600010F0100000900098002000906548006875
:101E700050F01000634908606248006810F01000DC
:101E80000090009801200190002002900120039012
:101E90000020059001A95C48FFF786FA0220019016
:101EA00000200290012003900020059001A95648CF
:101EB000FFF77AFA0420019000200290012003909D
:101EC0000020059001A95048FFF76EFA0820019004
:101ED00000200290012003900020059001A94A48AB
:101EE000FFF762FA10200190002002900120039079
:101EF0000020059001A94448FFF756FA07B000BD3D
:101F000080B501214048FFF73CFB002810D1142088
:101F1000FFF784FF01213C48FFF733FB002807D17E
:101F200001213948FFF72DFB0028F9D0012000E0FE
:101F3000002002BD80B502213348FFF722FB0028B4
:101F400010D11420FFF76AFF02212F48FFF719FB79
:101F5000002807D102212C48FFF713FB0028F9D0F5
:101F6000012000E0002002BD80B504212648FFF7D3
:101F700008FB002810D11420FFF750FF042122484D
:101F8000FFF7FFFA002807D104211F48FFF7F9FAED
:101F90000028F9D0012000E0002002BD80B5082112
:101FA0001948FFF7EEFA002810D11420FFF736FF8A
:101FB00008211548FFF7E5FA002807D10821124843
:101FC000FFF7DFFA0028F9D0012000E0002002BD71
:101FD00080B510210C48FFF7D4FA002810D1142046
:101FE000FFF71CFF10210848FFF7CBFA002807D1A4
:101FF00010210548FFF7C5FA0028F9D0012000E0BC
:10200000002002BD303802400010024080B505209B
:10201000FFF74AFB002200217FF00B00FFF748FB8F
:10202000002200217FF00A00FFF742FB002200217E
:102030007FF00900FFF73CFB002200217FF0040045
:10204000FFF736FB002200217FF00300FFF730FB93
:10205000002200217FF00100FFF72AFB002200216F
:102060005FF0FF30FFF724FB01BD0000124800685D
:1020700050F47000104908601048006850F00100EA
:102080000E49086000200E4908600C4800680D49A0
:1020900008400A4908600C480C4908600748006875
:1020A00030F48020054908600020094908605FF08D
:1020B000006008490860704788ED00E00038024081
:1020C00008380240FFFFF6FE1030002404380240BA
:1020D0000C38024008ED00E019E050F8041BCB0773
:1020E00044BFA9F101035918121F0023042A41F823
:1020F000043BF9D25FEA827C0B4604D54FF0000C1A
:10210000A1F800C09B1CD10744BF0021197050F8F2
:10211000042B002AE1D170477047FEE7FEE7FEE797
:10212000FEE770477047704780B5FFF76EFEFFF718
:10213000FBFA01BD80B50248FEF71EF901BD0000A3
:102140000C00002010B450F8041B79B102684368F9
:1021500012180830DC0744BFA9F10104E31852F853
:10216000044B43F8044B091FF9D1ECE710BC70474E
:1021700010B5074979441831064C7C44163404E004
:102180000A68081D511888470146A142F8D110BDC0
:102190002C0000004C0000004EF68851CEF20001E9
:1021A000086840F470000860BFF34F8FBFF36F8F73
:1021B0004FF00070E1EE100A704700001DFFFFFFB6
:1021C000540000000C0000200000000079FFFFFF19
:1021D0000C000000BC010000000000200000000016
:1021E00000F00BF8002801D0FFF7C2FF0020C04626
:1021F000C046FEF772FE00F002F80120704700F0C2
:1022000001B800000746384600F002F8FBE700007E
:1022100080B5C046C046024A11001820ABBEFBE79D
:10222000260002000000000000000000010203047C
:102230000607080901488047014800476D2000084B
:1022400045220008C046C046FFF7A6FFFFF7C8FFBB
:10225000FFF7FEBFFFF7FEBFFFF7FEBFFFF7FEBFB2
:10226000FFF7FEBFFFF7FEBFFFF7FEBFFFF7FEBFA2
:10227000FFF7FEBFFFF7FEBFFFF7FEBFFFF7FEBF92
:10228000FFF7FEBFFFF7FEBFFFF7FEBFFFF7FEBF82
:10229000FFF7FEBFFFF7FEBFFFF7FEBFFFF7FEBF72
:1022A000FFF7FEBFFFF7FEBFFFF7FEBFFFF7FEBF62
:1022B000FFF7FEBFFFF7FEBFFFF7FEBFFFF7FEBF52
:1022C000FFF7FEBFFFF7FEBFFFF7FEBFFFF7FEBF42
:1022D000FFF7FEBFFFF7FEBFFFF7FEBFFFF7FEBF32
:1022E000FFF7FEBFFFF7FEBFFFF7FEBFFFF7FEBF22
:1022F000FFF7FEBFFFF7FEBFFFF7FEBFFFF7FEBF12
:10230000FFF7FEBFFFF7FEBFFFF7FEBFFFF7FEBF01
:10231000FFF7FEBFFFF7FEBFFFF7FEBFFFF7FEBFF1
:10232000FFF7FEBFFFF7FEBFFFF7FEBFFFF7FEBFE1
:10233000FFF7FEBFFFF7FEBFFFF7FEBFFFF7FEBFD1
:10234000FFF7FEBFFFF7FEBFFFF7FEBFFFF7FEBFC1
:10235000FFF7FEBFFFF7FEBFFFF7FEBFFFF7FEBFB1
:10236000FFF7FEBFFFF7FEBFFFF7FEBFFFF7FEBFA1
:10237000FFF7FEBFFFF7FEBFFFF7FEBFFFF7FEBF91
:10238000FFF7FEBFFFF7FEBFFFF7FEBFFFF7FEBF81
:0C2390002003B0044006D0070024F40035
:040000050800224588
:00000001FF
