:020000040800F2
:10000000881300209D010008F31D0008011B000853
:10001000F11D000819070008052C00080000000069
:10002000000000000000000000000000C9230008DC
:100030007507000800000000151E0008CB2300080B
:10004000B7010008B7010008B7010008B7010008B0
:10005000B7010008B7010008770700087D0700080E
:1000600083070008B7010008B7010008B7010008BE
:10007000B7010008B7010008B7010008B701000880
:10008000B7010008B7010008B7010008B701000870
:10009000B7010008B7010008B7010008B701000860
:1000A000B7010008B7010008B7010008B701000850
:1000B000B7010008B7010008B7010008B701000840
:1000C000B7010008B7010008B7010008B701000830
:1000D000B7010008B7010008B7010008F92B0008B4
:1000E000B7010008B7010008B7010008B701000810
:1000F000B7010008B7010008D5240008B7010008BF
:10010000B7010008B7010008C9240008B7010008BA
:10011000B7010008B7010008B7010008B7010008DF
:10012000B7010008B7010008B7010008B7010008CF
:10013000B7010008B7010008B7010008B7010008BF
:10014000B7010008B7010008B7010008B7010008AF
:10015000B7010008B7010008B7010008B70100089F
:10016000B7010008B7010008B7010008B70100088F
:10017000B7010008B7010008B7010008000000003F
:10018000B7010008B7010008DFF80CD000F026FA2C
:1001900000480047F53400088813002006488047CF
:1001A00006480047FEE7FEE7FEE7FEE7FEE7FEE75C
:1001B000FEE7FEE7FEE7FEE7752400088901000878
:1001C00000F0004230F000400AD0C10D01F560712E
:1001D000C0F3160042EA0151C208400711437047BC
:1001E00000200146704730B50B4601460020202212
:1001F000012409E021FA02F59D4205D303FA02F534
:10020000491B04FA02F52844151EA2F10102F1DC93
:1002100030BD2DE9F05F0546002092469B4688469A
:100220000646814640241BE0284641464746224672
:1002300000F0F5F953465A46C01A914110D31146C1
:100240001846224600F0DCF92D1A67EB01084F46EC
:1002500022460120002100F0D3F917EB00094E419E
:10026000201EA4F10104DFDC484631462A464346FD
:10027000BDE8F09F2DE9FE4F804681EA0300C00FE4
:100280000C46009021F0004123F00045B8EB02003D
:10029000A94105D24046214690461C460B460246DF
:1002A00023F00040104347D0270DC7F30A00C3F3E3
:1002B0000A510290401A019040286BDAC3F31300F0
:1002C00040F4801B0098924620B10023D2EB030A31
:1002D00063EB0B0B01985946C0F14002504600F009
:1002E0008FF906460D4650465946019A00F0A7F987
:1002F00010EB08006141002487EA115284EAE77399
:100300001A4340D0009A62B3019A012A4FEA075279
:1003100015DC001B61EB02014FF0004202EA0752BC
:10032000CDE90042001C41F5801132462B4600F019
:10033000A5F903B0BDE8F08F40462146F9E7001B60
:1003400061EB0201001C41F5801300185B4120188D
:10035000A2F5001747EB030140EAD570B6196D41CD
:1003600011E06D084FEA360645EAC0754FEA0752BC
:10037000001B61EB0201001C41F5801149084FEAA6
:1003800030000019514132462B4603B0BDE8F04F12
:1003900000F067B90098012240000023D0EB020270
:1003A00063EBE073009821464FEAE074B8EB00007D
:1003B00061EB0401E9E783F000435BE781F0004172
:1003C00058E72DE9FE4F81EA030404F0004421F0D0
:1003D000004100944FF0000B23F0004350EA010469
:1003E0005ED052EA03045BD0C3F30A54C1F30A554A
:1003F0002C44A4F2F3340194A0FB0254C1F3130182
:1004000041F48011C3F3130343F4801301FB02444E
:1004100000FB034E840A970A44EA815447EA835753
:10042000A4FB076802958D0A05FB07854FEA932C0C
:1004300004FB0C542705029D4FEA065847EA16377D
:10044000B5EB08056EEB070C870E920E47EA811795
:1004500042EA8312A7FB0201B6EB0B0164EB000436
:100460002B0D43EA0C335E1844EB1C50DA46514620
:10047000E7FB0201C5F313044FEA0B3343EA1453BD
:100480004FEA0432019C43EA0603A4F10C040294EF
:10049000009CCDE900B400F0F1F803B0BDE8F08FA6
:1004A00000200146F9E72DE9F04D81EA030404F04C
:1004B000004B21F0004514464FF0000A23F00041A4
:1004C00050EA050220D054EA01021DD0C5F30A57B4
:1004D0000246C5F31303C1F31300C1F30A5640F4F7
:1004E000801543F48013A7EB0608101BD64608F2CC
:1004F000FD3873EB050002D308F1010801E0921802
:100500005B41B8F1000F03DA00200146BDE8F08D31
:1005100000204FF48011064684460EE0171B73EB53
:10052000050705D3121B63EB050306434CEA010CD8
:1005300049084FEA300092185B4150EA0107EDD1BB
:1005400052EA030012D082EA040083EA050108435C
:1005500005D0101BAB4106D20122002306E0002289
:100560004FF0004302E06FF0010253101AEB060057
:100570004CEB085110EB0A0041EB0B01BDE8F04DCC
:1005800000F06FB8C1F30A52C1F3130140F2FF3318
:1005900041F480119A4202DA00200146704740F28D
:1005A00033439A42A2F2334202DC524200F037B89F
:1005B00000F026B830B5002904DB4FF0004440427B
:1005C00064EB0101002B04DB4FF00044524264EB6A
:1005D0000303994208BF904230BD0000064C074D0E
:1005E00006E0E06840F0010394E807009847103403
:1005F000AC42F6D3FFF7CCFDE8390008083A000812
:10060000202A04DB203A00FA02F1002070479140D2
:10061000C2F1200320FA03F3194390407047202AC7
:1006200004DB203A21FA02F00021704721FA02F39C
:10063000D040C2F120029140084319467047202A59
:1006400006DBCB17203A41FA02F043EAE07306E0FA
:1006500041FA02F3D040C2F120029140084319460A
:10066000704710B5002B08DA401C41F100019218C8
:100670005B411A4301D120F0010010BD2DE9F04D7E
:1006800092469B4611B1B1FA81F202E0B0FA80F2D3
:1006900020329046FFF7B4FF04460F4640EA0A00B6
:1006A00041EA0B0153465A46084313D0114653EA18
:1006B000010019D0C8F140025046FFF7B0FF0546CF
:1006C0000E46504659464246FFF79AFF084305D06A
:1006D000012004E020463946BDE8F08D00200543A6
:1006E00046EAE0762C4337430A986305E40AA0EB18
:1006F00008000022FD0A44EA47540A3002D50020CF
:100700000146E9E7010510196941DDE908450019CD
:100710006941BDE8F04DA4E7FEE7000070B505466D
:100720000D4C15E0012000F071F86D1EADB20FD236
:10073000A08802280BD0A078401CA070A17807A048
:1007400002F062FAA078642801D10020A07070BD88
:10075000A0880228E6D170BD000000204D425F5302
:100760004C415645414444523A2030782530327845
:100770000A0000007047012000F072B8022000F06B
:100780006FB8042000F06CB830B5164814498BB02F
:1007900002C0532100244FF6FF7532C008210460C7
:1007A000103800F0ADFF4FF48050079007A90D48B6
:1007B00000F06BFD3020CDE900050820CDE90240B6
:1007C00004940594002269460648069400F08AFEC7
:1007D00004226946034800F085FE0BB030BD0000DE
:1007E000000C0040C800002090F83510022903D00A
:1007F0008021416501207047052180F8351000688F
:10080000016821F0010101600020704731B500F05E
:1008100019F9009C0546601C00D0641C00F012F918
:10082000401BA042FAD338BD10B502280FD10849A9
:1008300008600146074800F0F7F8002807D10122B8
:100840002021054800F0F9F804490120086010BD96
:10085000143C014000180240001002402800002013
:10086000044910B50A68024202D00860FFF7DCFFB5
:1008700010BD0000143C01402DE9F84FDFF87CB1B9
:1008800000224FF001084FF0030A4FF00F090BF15F
:10089000040E00BF0B6808FA02F42340A3426ED195
:1008A0004D68022D01D0122D0ED1D50800EB850C1C
:1008B000DCF820505607F70E09FA07F6B5430E6923
:1008C000BE402E43CCF82060066855000F790AFA26
:1008D00005FC07F0030726EA0C06AF403743076024
:1008E0004E68012E05D0022E03D0112E01D0122EFB
:1008F0000ED18668CF6826EA0C06AF403743876082
:100900004668A6430C79C4F3001494403443446011
:10091000C6688C6826EA0C06AC403443C4604C6858
:10092000E40065D5364C256845F48045256024688B
:1009300022F0030504F480440094324C2E19D6F8BA
:10094000084895072F0F09FA07F5AC432E4DA8422A
:1009500001D1002524E02D4DA84201D101251FE041
:100960002B4DA84201D102251AE02A4DA84201D1FF
:10097000032515E0284DA84202D1042510E037E0F8
:10098000264DA84201D105250AE0254DA84201D1F6
:10099000062505E0234DA84201D1072500E00825E2
:1009A000BD402543C6F80858DBF800405D464E6858
:1009B0009C43F60300D51C432C60DEF800407546CE
:1009C0004E689C43B60300D51C432C600B4D083584
:1009D0002C684E689C43F60200D51C432C60074DE2
:1009E0000C352C684E689C43B60200D51C432C6025
:1009F000521C102AFFF44EAFBDE8F88F003C0140B6
:100A0000443802400030014000000240000402402F
:100A100000080240000C0240001002400014024096
:100A200000180240001C02400069084000D001206C
:100A3000704742694A40426170470AB1816170471C
:100A40000904FBE70148006870470000200000200F
:100A500002480168491C0160704700002000002026
:100A60000B4810B5016841F400710160016841F460
:100A700080610160016841F480710160032000F031
:100A80007DF8002000F006F800F018F8002010BDF6
:100A9000003C024010B5044607484FF47A710068E4
:100AA000B0FBF1F000F045FB00222146501E00F0A3
:100AB00045F8002010BD00002400002010B50320E0
:100AC00000F05CF8002211466FF00B0000F036F8E1
:100AD000002211466FF00A0000F030F800221146A3
:100AE0006FF0090000F02AF800221146501F00F0B4
:100AF00025F800221146101F00F020F800221146B0
:100B0000901E00F01BF800221146501E00F016F84F
:100B100000221146052000F011F8BDE81040052024
:100B2000AFF3008000F01F020121914040098000D6
:100B300000F1E020C0F8001170470000F0B40E4B47
:100B40001B680C46C3F30223C3F10705042D00D92B
:100B50000425191D072901D2002300E0DB1E012610
:100B600006FA05F1491E214099409E40761E164026
:100B70003143F0BC01F03EB90CED00E0064900F055
:100B8000070208684FF6FF03184040EA0220034AB4
:100B900010430860704700000CED00E00000FA050B
:100BA0002DE9F047DFF8649105460F46D9F80000BB
:100BB00000F00F01F8B28046B94208D2014689F828
:100BC0000010D9F8000000F00F00B84274D1287866
:100BD0004F4C800705D52068A96820F0F000084335
:100BE00020602878C00759D0494968680839012829
:100BF0001AD002281BD0032819D0096889070029B8
:100C00005ADA216821F0030101432160FFF71AFF3E
:100C10006968064641F28830012911D002291DD0A9
:100C20000329824627D035E009688903E7E7096888
:100C30008901E4E7FFF706FF811B514501D926E052
:100C400082462068C0F381000128F3D126E000BF6E
:100C5000FFF7F8FE811B514501D918E08246206854
:100C6000C0F381000228F3D118E000BFFFF7EAFECD
:100C7000811B51450BD82068C0F381000328F5D1B2
:100C80000CE000BFFFF7DEFE811B514502D90320B7
:100C9000BDE8F087206810F00C0FF3D1D9F80010F0
:100CA000484601F00F01B94208D980F80080006879
:100CB00000F00F00B84201D00120E9E72878400792
:100CC00005D52068E96820F4E050084320602878C2
:100CD000000706D52068296920F4604040EAC10079
:100CE000206000F057F82168F02292FAA2F201F099
:100CF000F001B2FA82F2D140064A515CC84006497E
:100D000008600020FFF7C6FE0020C1E7003C02405B
:100D100008380240D0370008240000200149012093
:100D2000C8647047000047420148006870470000EF
:100D30002400002008480949006809684FF4E0527F
:100D400092FAA2F201F4E051B2FA82F2D140044ADE
:100D5000515CC84070470000240000200838024061
:100D6000E037000808480949006809684FF4604204
:100D700092FAA2F201F46041B2FA82F2D140044A3E
:100D8000515CC84070470000240000200838024031
:100D9000E037000830B51948006810F00C01184819
:100DA00012D0441004290ED008290DD11349091F6F
:100DB0000A6802F03F030A68550247F6C07204D57C
:100DC000B4FBF3F003E0204630BDB0FBF3F00B685A
:100DD0000968134092FAA2F2B2FA82F2D340584361
:100DE0004FF4403292FAA2F201F44031B2FA82F2A8
:100DF000D140491C4900B0FBF1F030BD0838024039
:100E00000024F4002DE9F84F0546DFF8FC92007845
:100E1000A9F1040BC007ABF1040449D0D9F80010C4
:100E20004846C1F38101012908D00068C0F3810060
:100E300002280AD1DBF80000400206D520688003B2
:100E400036D5686800286ED032E06868B0F5803F1B
:100E500010D0B0F5A02F206810D020F48030206092
:100E6000206820F4802020606868A0B1FFF7EAFDC8
:100E700006460CE0206840F48030F4E740F480201F
:100E80002060F7E7FFF7DEFD801B642871D820683B
:100E90008003F7D50CE0FFF7D5FD064605E000BF5F
:100EA000FFF7D0FD801B6428F0D820688003F7D4BA
:100EB0002878964F80074FF0010A4FF0000841D57F
:100EC000D9F80010484611F00C0F08D00068C0F3A4
:100ED000810002280AD1DBF80000400206D4206815
:100EE000800713D5E86801281DD10FE0E868D8B164
:100EF000C7F800A0FFF7A6FD064604E0FFF7A2FD35
:100F0000801B0228C2D820688007F7D52068F82205
:100F100092FAA2F22969B2FA82F220F0F800914026
:100F2000084320600EE0ECE0C7F80080FFF78AFD80
:100F3000064604E0FFF786FD801B022819D82068CA
:100F40008007F7D42878000724D57148696989B1EA
:100F5000C0F800A0FFF776FD064604E0FFF772FD3B
:100F6000801B022805D868486C3000688007F5D5DA
:100F700010E07AE0C0F80080FFF764FD064604E068
:100F8000FFF760FD801B02286FD85F486C30006857
:100F90008007F5D42878400753D55B48383001687E
:100FA00041F080510160006800F080500090594885
:100FB000016841F480710160FFF744FD064604E0DA
:100FC000FFF740FD801B02284FD852480068C0053B
:100FD000F6D54D4EA868683601280FD00528306830
:100FE00010D020F001003060306820F00400306044
:100FF000A868B8B1FFF726FD00900FE0306840F018
:101000000100F4E740F004003060F7E7FFF71AFD55
:101010000099411A41F2883081426AD830688007CD
:10102000F4D50EE0FFF70EFD009007E0FFF70AFD94
:101030000099411A41F2883081425AD830688007BD
:10104000F4D4A869E8B3D9F80010C1F381010229EA
:1010500057D00228C7F8608003D0FFF7F3FC05469D
:101060004AE0FFF7EFFC064605E042E0FFF7EAFC46
:10107000801B02283DD820688001F7D4D5E90701FC
:10108000084347F6C07292FAA2F2696AB2FA82F293
:101090009140AA6A4FF0FF3303EB52024FF4403302
:1010A00093FAA3F3B3FA83F39A40114308434FF042
:1010B000706292FAA2F2E96AB2FA82F291400843AF
:1010C00000E01CE0CBF80000C7F860A0FFF7BAFC16
:1010D000054604E0FFF7B6FC401B022809D820684B
:1010E0008001F7D50BE000BFFFF7ACFC401B0228E6
:1010F00002D90320BDE8F88F20688001F4D40020D5
:10110000F8E70120F6E700000838024000004742F7
:10111000800E4742007000404FF0E021042808692B
:1011200003D020F004000861704740F00400FAE7A3
:10113000704710B5401EB0F1807F01D3012010BD73
:101140004FF0E02460610F21601700F053FE002093
:10115000A06107202061002010BD10B5FFF7E8FF57
:1011600010BD7047704710B590F83820012A25D07F
:10117000012280F83820CA688C6822F44072224329
:101180004C6822F4806222430C6822F400622243FD
:101190000C6922F4805222434C6922F4005222430B
:1011A0008C6922F48042224322F400410268002329
:1011B0002143516480F83830002010BD022010BD5A
:1011C00030B590F83820012A20D0012280F838204C
:1011D000022380F8393003685C6824F070045C6096
:1011E00003685C680D682C435C6003689C6824F0AD
:1011F00080049C6003689C6849680C439C6080F88C
:101200003920002180F83810084630BD022030BD5A
:1012100010B5040003D094F8390010B107E00120A4
:1012200010BD002084F83800204600F00DF80220A0
:1012300084F83900211D206801F052F9012084F85A
:101240003900002010BD000008B50068064988423A
:1012500008D10648016841F002010160006800F011
:101260000200009008BD0000000401404438024024
:10127000022180F8391001680A6842F001020A6010
:10128000012180F839100020704770B5044690F8AD
:101290003800012817D0012584F83850022084F83E
:1012A00039002068826822F0770222F47F4282604F
:1012B0000868502837D00DDC202859D005DC88B3C9
:1012C000102841D151E0022070BD302853D0402871
:1012D0003AD13FE060282ED070280BD0B0F5805F67
:1012E00003D0B0F5005F2FD110E02068816821F0B5
:1012F000070115E0CB68D1E90121206801F05BF915
:101300002168886840F0770088601DE0CB68D1E9EB
:101310000121206801F04FF92068816841F4804183
:10132000816011E01EE0CA684968206801F00CFA8B
:101330005021206806E0CA684968206801F015FA63
:101340006021206801F041F984F83950002084F8C8
:10135000380070BDCA684968206801F0F5F940217D
:101360002068EFE700212068ECE710212068E9E71A
:1013700020212068E6E730212068E3E7704770B558
:101380000446006801694FF00005C943890715D478
:10139000C168C943890711D4E91E01610120207683
:1013A000206880698007204602D0FFF7E7FF04E04D
:1013B00000F0C4F8204600F0E7F9257620680169BE
:1013C000C943490717D4C168C943490713D46FF00B
:1013D00004010161022020762068806910F4407FBA
:1013E000204602D0FFF7CAFF04E000F0A7F820462D
:1013F00000F0CAF9257620680169C943090716D4A7
:10140000C168C943090712D46FF0080101610420C3
:1014100020762068C0698007204602D0FFF7AEFF23
:1014200004E000F08BF8204600F0AEF92576206845
:101430000169C943C90617D4C168C943C90613D491
:101440006FF010010161082020762068C06910F457
:10145000407F204602D0FFF791FF04E000F06EF8D5
:10146000204600F091F9257620680169C943C90733
:1014700008D1C168C943C90704D1891E016120464A
:1014800000F084F920680169C943090609D4C168DC
:10149000C943090605D46FF0800101612046FFF7BA
:1014A00060FE20680169C943490609D4C168C9437F
:1014B000490605D46FF040010161204600F072F941
:1014C00020680169C94389060BD4C168C9438906EC
:1014D00007D46FF0200101612046BDE87040FFF79E
:1014E00041BE70BD70B5044690F8380001280DD09B
:1014F000012584F83850022084F8390042B1042ACA
:101500000AD0082A0CD00C2A11D10DE0022070BD9F
:10151000206801F063F80AE0206801F08BF806E02B
:10152000206801F0B9F802E0206801F0E5F884F8DD
:101530003950002084F8380070BD00002DE9F05FBC
:10154000DFF8FC800746D8F80000466A397EDFF8ED
:10155000F4903D4C01294AD1B9F80010314489B2C8
:1015600041632068401C2060DFF8E0A00025DAF825
:101570000C0058B93649DAF81C00884237DD0022E1
:101580001146344801F00CF8CAF81850DAF80C008B
:1015900001280ED1DFF8C0B0DBF80000012826D109
:1015A000002211462B4800F0FBFFCBF80050CAF890
:1015B0001850DAF80C004FF4485B022809D1206873
:1015C000584514D300221146224800F0E9FFCAF81A
:1015D0001850DAF80C00032809D12068584506D3C2
:1015E000002211461B4800F0DBFFCAF81850387E75
:1015F000022809D1B9F80200D8F80010304480B2AE
:1016000088636068401C6060387E042809D1B9F89E
:101610000400D8F80010304480B2C863A068401CB1
:10162000A060387E082809D1B9F80600D8F8001063
:10163000304480B20864E068401CE060BDE8F09F80
:101640008C0000202C0000207C00002000000020E6
:101650000000C842000401402800002010B504002A
:1016600003D094F8390010B107E0012010BD00202C
:1016700084F83800204600F00CF8022084F8390085
:10168000211D206800F02CFF012084F83900002083
:1016900010BD704710B50268044631B1042908D066
:1016A000082920D00C2908D121E0D06840F00200A0
:1016B00002E0D06840F00400D0600122206800F011
:1016C0006FFF0D492068884202D00C49884203D13F
:1016D000416C41F4004141642068016841F001011E
:1016E0000160002010BDD06840F00800E4E7D06839
:1016F00040F01000E0E7000000000140000401405D
:1017000070B50D46040003D094F8390010B107E01D
:10171000012070BD002084F83800204600F016F843
:10172000022084F83900211D206800F0D9FE2068CD
:10173000016821F008010160206801682943016007
:10174000012084F83900002070BD000008B5006851
:101750000B49884212D10B48016841F00801016031
:101760000068002200F00800009011463220FFF7C8
:10177000E5F9BDE808403220FFF7D4B908BD000004
:10178000000C004040380240704700000448828846
:101790004FF400418A4200D002218180704700004E
:1017A000000000207047704770B503680446186851
:1017B000D9685A691E6800F00F05F643360704D44D
:1017C0006FF008061E6023685B68EDB302F001034A
:1017D00001F490752B435FD0C30705D0CB0503D52B
:1017E000E36B43F00103E363430705D5D30703D05D
:1017F000E36B43F00203E363830705D5D30703D00C
:10180000E36B43F00403E363030705D5D20703D07A
:10181000E26B42F00802E263E26B002A36D08006F7
:1018200004D5880602D5204600F0C7FF206840692D
:10183000E16BC0F3801001F008010143204626D07F
:1018400000F0ADFF206800E014E0416949061AD5B8
:10185000416921F040014161606BA0B11B49016504
:10186000606BFEF7C1FF002810D0606B016DBDE812
:101870007040084782060FD58A060DD52046BDE880
:10188000704000F09ABF2046FFF78DFF70BDFFF754
:101890008AFF0020E06370BD020606D50A0604D563
:1018A0002046BDE8704001F025B94006F3D5480652
:1018B000F1D521682046CA6822F04002CA60202182
:1018C00084F8391000F01BF970BD00008F27000864
:1018D00070B5040004D094F83900002510B106E07A
:1018E000012070BD84F83850204600F023F82420F1
:1018F00084F839002068C16821F40051C160204695
:1019000000F0A2FF2068016921F490410161206884
:10191000416921F02A0141612068C16841F4005108
:10192000C160E563202084F8390084F83A00002083
:1019300070BD000000B500680E4987B0884216D11E
:101940000D48016841F0100101600068694600F02F
:1019500010000590C020009002200190012002900C
:1019600003200390072004900448FEF785FF07B08A
:1019700000BD000000100140443802400004024055
:1019800090F83A30202B1DD1D1B1CAB190F838303F
:10199000012B17D081628285C2850021C16322227A
:1019A00080F83A2080F8381001684A6942F0010254
:1019B0004A610068C16841F49071C16000207047BD
:1019C000012070470220704770B5174988422AD11C
:1019D000164DA888164C002620B1401CB0F5803F5B
:1019E0000FD106E00120A88026801248FFF740FCB6
:1019F00007E04FF400711048FFF71BF84FF4004068
:101A0000A8800E4800780E49228888542088401CFF
:101A10002080084800684662BDE8704001220749FE
:101A20000148FFF7ADBF70BD040100200000002099
:101A300034000020C8000020001C024036000020B6
:101A4000840100202DE9F843044690F839001F4630
:101A500016460D46202850D1A5B19EB194F8380005
:101A600001284AD0012084F838004FF00008C4F85B
:101A70003C80212084F83900FEF7E4FFA6848146EB
:101A8000E68426E00120BDE8F883E08C401EE08477
:101A9000A0684B46B0F5805F4FF000024FF0800128
:101AA0002046009703D001F075F8E8B90DE001F089
:101AB00071F8C8B928882168C0F308004860206917
:101AC00008B16D1C05E0AD1C03E0216815F8010BA1
:101AD0004860E08C0028D8D14B46002240212046A7
:101AE000009701F057F808B10320CCE7202084F8D4
:101AF000390084F838800020C5E70220C3E770472A
:101B0000FEE7000010B50C4C01212046FEF78CFFCB
:101B100038B91420FEF77AFE01212046FEF784FF33
:101B200008B1002010BD01212046FEF77DFF0028EE
:101B3000F9D0012010BD00000010024010B50C4C7F
:101B400002212046FEF770FF38B91420FEF75EFE32
:101B500002212046FEF768FF08B1002010BD0221D7
:101B60002046FEF761FF0028F9D0012010BD0000DB
:101B70000010024070B51F4886B00024016841F093
:101B800010010160016801F010010591016841F048
:101B90001001016000680125CDE9005400F010003B
:101BA000CDE90440144E694602953046FEF764FEC6
:101BB00002208DE83100694630460494FEF75CFE51
:101BC00004208DE83100694630460494FEF754FE47
:101BD00008208DE83100694630460494FEF74CFE3B
:101BE00010208DE83100694630460494FEF744FE2B
:101BF00006B070BD3038024000100240F0B52448F5
:101C000087B0016841F080010160016801F0800146
:101C10000591016841F010010160016801F01001B7
:101C20000591016841F0100101600068194E00F053
:101C300010004FF400740590002221463046FEF754
:101C4000FCFE154F002220213846FEF7F6FE00224A
:101C500040213846FEF7F1FE009401240225694632
:101C6000304603950194FEF707FE2020CDE90004DD
:101C7000694603953846FEF7FFFD4020CDE9000494
:101C8000694603953846FEF7F7FD07B0F0BD000042
:101C900030380240001C02400010024070B5094D6F
:101CA000FF231A4605F5807606E000BF10F8014BC9
:101CB00054402A5D5A40335D491EC9B2F6D242EA09
:101CC000032070BDE837000810B50B4C20700320CE
:101CD0006070080AA070E170100A2071627106211C
:101CE0002046FFF7DBFFA071000AE0712046BDE847
:101CF0001040082100F030BF840200200848DD2198
:101D00000170A5214170032181700021C170FF2164
:101D10000171FD21417177218171072100F01CBF04
:101D20008402002070B5104C049D20700320607068
:101D3000080AA070E170100A20716271180AA0717F
:101D4000E371257209212046FFF7A8FF6072000A9F
:101D5000A0720B242146044800F0FEFE2146BDE897
:101D60007040014800F0F8BE8402002010B50E4C0F
:101D7000212020700F20607002220020A070E070EF
:101D800020710C216171A271E1712072092120463C
:101D9000FFF784FF6072000AA0722046BDE8104081
:101DA0000B2100F0D9BE0000840200200D4882B053
:101DB0000021026842F00202026000680A4A00F054
:101DC00002000090094802604FF41652C0E9012158
:101DD0000C22C160C0E904128161C16102B0FFF749
:101DE00077BD00003038024000100140440100205F
:101DF000FEE770470907090E002806DA00F00F0019
:101E000000F1E02080F8141D704700F1E02080F818
:101E100000147047704700002DE9F041414D4FF02C
:101E20000208A5F80480A888022878D1287800271D
:101E30003D4C01282ED00026A25D31463BA000F08B
:101E4000E3FE761CF6B2082EF6D33C480188214406
:101E500011F8021C0288224412F8012C41EA0221E6
:101E600029810088801EC1B22F48FFF717FF2989FA
:101E7000884253D16078000650D5314D4FF400743C
:101E80004FF4FA7621462846FEF7D3FD3046FEF79A
:101E9000BDFCF7E7207801281FD12079617940EA5D
:101EA0000166A079E178000440EA0120064332206F
:101EB000EE61FEF733FC314622A000F0A5FE30466D
:101EC000FEF77EF941EC100B22A053EC102B00F032
:101ED0009BFE26A000F098FE2F702078A12812D13A
:101EE000012028616178012900D1686160780228A9
:101EF00001D1C5F814806078032800D1686160784A
:101F0000042800D1686119A000F07EFE0122064974
:101F10001748FFF735FD2F7097E700E0AF80BDE869
:101F2000F0810000000000208401002052785F4210
:101F300075665B25645D3D25780A0000340000204D
:101F4000001C0240526573756C743A20307825305D
:101F500038580A00494545452037353420CAAEBDBA
:101F6000F8D6C63A2025660A000000000A000000E4
:101F700004010020F0B5214887B00025016841F434
:101F800080210160006800F4802005901B48103813
:101F9000016841F002010160016801F00201059150
:101FA000016841F0800101600068022400F08000B7
:101FB00005904FF48060CDE900040726104FCDE96D
:101FC000034669463846FEF757FCA00204968DE8A2
:101FD000310069463846FEF74FFC0A4EE501002203
:101FE00029463046FEF729FD0120CDE9005069461B
:101FF00003943046FEF740FC07B0F0BD4038024085
:1020000000040240001C024010B5FFF7B3FF134864
:1020100011490C2201604FF4E131416000218160DF
:10202000C160C0E904128161C161FFF751FC012266
:1020300000212720FEF782FD2720FEF773FD0022F6
:102040004FF480710648FEF7F8FCBDE8104001220D
:1020500004490248FFF794BC0048004004010020F6
:10206000001C0240360000202DE9F04F9B4887B04D
:102070000026016841F480710160016801F48071FB
:102080000591016841F008010160016801F0080153
:102090000591016841F008010160016801F0080143
:1020A0000591016841F480710160016801F480715B
:1020B0000591016841F008010160016801F0080123
:1020C0000591016841F020010160016801F02001E3
:1020D0000591016841F480710160016801F480712B
:1020E0000591016841F020010160016801F02001C3
:1020F0000591016841F020010160016801F02001B3
:102100000591016841F480710160016801F48071FA
:102110000591016841F004010160016801F00401CA
:102120000591016841F0800101600068022400F01F
:10213000800005902020CDE900040327DFF8A0B13E
:10214000CDE9034769465846FEF796FB082001256E
:10215000CDE90005CDE9034669466248FEF78CFBF0
:10216000CDE903464FF08008CDE9008569465D481A
:10217000FEF782FB4020CDE90004CDE90347694624
:102180005846FEF779FBCDE903464FF40069CDE9E7
:10219000009569465348FEF76FFBCDE90346CDE94C
:1021A000009569465048FEF767FBCDE90084CDE90C
:1021B000034769465846FEF75FFBCDE90045CDE988
:1021C000034669464848FEF757FBCDE903464FF002
:1021D000040ACDE900A569464348FEF74DFBCDE969
:1021E00000A4CDE9034769465846FEF745FBCDE913
:1021F0000346E701DFF8F4B0CDE9007569465846BB
:10220000FEF73AFBCDE90085DFF8E480CDE903462F
:1022100069464046FEF730FB012208213148FEF7AF
:102220000CFC002280212F48FEF707FC01224946C2
:102230002C48FEF702FC002249462B48FEF7FDFB26
:10224000012202212848FEF7F8FB0022042126483B
:10225000FEF7F3FB012239465846FEF7EEFB00225B
:1022600080214046FEF7E9FB224FDFF88C80CDE964
:102270000047CDE90254694640460496FEF7FCFA51
:10228000CDE90254CDE900A7694640460496FEF721
:10229000F3FA1A48CDE90254CDE9005069464046A8
:1022A0000496FEF7E9FA012200210720FEF746FC1A
:1022B0000720FEF737FC012200210820FEF73EFC34
:1022C0000820FEF72FFC012200210620FEF736FC35
:1022D0000620FEF727FC07B0BDE8F08F303802403B
:1022E00000200240000C024000140240000802409E
:1022F000001C0240000021100018024000003110B4
:1023000030B52F4895B02D49016005210024C0E962
:1023100001144FF6FF71C0E903144461FEF778FF22
:102320004FF480500E900EA92548FEF7AEFF2448CA
:10233000FFF794F9129412A921481394FEF740FF75
:102340000794089409944FF400500A94CDE90B4087
:1023500007A91B480D94FEF706FF1A4D3020009088
:102360002888CDE901040820CDE903040594002262
:10237000694613480694FFF7B5F86888019004226F
:1023800069460F48FFF7AEF8A88801900822694611
:102390000B48FFF7A7F8E88801900C226946084827
:1023A000FFF7A0F8FFF760FE002211462E20FEF78F
:1023B000C5FB2E20FEF7B6FB15B030BD0004014072
:1023C0008C0000202C000020704710B5FEF740FB69
:1023D000BDE81040FEF7C1BE30B5244893B00025DB
:1023E000016841F080510160006800F08050119058
:1023F0001F48016841F4804101600068022400F434
:102400008040119001200090000401908001CDE9EE
:102410000640082008904FF4A870CDE90904072071
:102420000B906846FEF7EEFC0CA90F2081E8310006
:102430004FF4A0500F90E002109005210CA8FEF779
:10244000AFFBFEF76BFCFEF76FFC4FF47A71B0FB4D
:10245000F1F0FEF76EFE0420FEF75EFE002211464C
:10246000501EFEF76BFB13B030BD00004038024039
:10247000007000401048016841F4700101600F488D
:10248000016841F0010101600C4A0021083211602D
:1024900002680B4B1A400260031D0A4A1A60026868
:1024A00022F48022026005480C300160024958067F
:1024B000803908607047000088ED00E00038024075
:1024C000FFFFF6FE103000240148FEF758BF000061
:1024D000C80000200148FEF752BF00008C00002019
:1024E000F0B50268234B244D244E254F254C4FF068
:1024F000804C984209D0604507D0A84205D0B04230
:1025000003D0B84201D0A04204D122F0700E4A6834
:1025100042EA0E0298421BD0604519D0A84217D05B
:10252000B04215D0B84213D0A04211D0164DA842E7
:102530000ED0164DA8420BD0154DA84208D0154D0F
:10254000A84205D0144DA84202D0144DA84203D190
:1025500022F44075CA682A4302608A68C2620A6827
:102560008262984201D0A04201D109690163012130
:102570004161F0BD0000014000040040000800403F
:10258000000C0040000401400040014000440140B4
:102590000048014000180040001C0040002000409E
:1025A00010B50123046A8B409C430462036A8A408D
:1025B0001343036210BD10B5846842EA032224F479
:1025C0007F440A432243826010BD826822F0700279
:1025D0000A4342F0070181607047000030B5026A8B
:1025E00022F001020262026A436884690D6824F0E5
:1025F0007304254322F002048A6822430B4CA04254
:1026000002D00B4CA0420BD122F00804CA6823F47C
:10261000407322434C6922F004021C438B6923431C
:102620004360856149684163026230BD000001403A
:102630000004014030B5026A22F010020262026A10
:10264000436884690D6824F4E64444EA05248D68EF
:1026500022F0200242EA05120D4DA84202D00D4D93
:10266000A8420ED1CD6822F0800242EA05124D69DF
:1026700023F4406343EA85038D6922F0400243EA74
:1026800085034360846149688163026230BD000054
:10269000000001400004014030B5026A22F480725B
:1026A0000262036A4268C46923F4007324F073056C
:1026B0000C682C438D6843EA05230D4DA84202D0D7
:1026C0000C4DA8420ED1CD6823F4006343EA0523E4
:1026D0004D6922F4405242EA05128D6923F4806369
:1026E00042EA05124260C4614968C163036230BDB9
:1026F000000001400004014030B5026A22F480521B
:102700000262046A4268C3690D6823F4E64343EA3F
:1027100005238D6824F4005444EA0534084DA8428A
:1027200002D0084DA84204D14D6922F4804242EA09
:1027300085124260C36149680164046230BD0000D3
:10274000000001400004014010B5036A046A24F04F
:1027500001040462846924F0F00444EA021423F0C2
:102760000A020A438461026210BD10B5036A23F0B5
:10277000100303628369046A23F4704343EA02325C
:1027800024F0A00343EA01118261016210BD10B57B
:10279000806B0021C185C184FFF705F810BD016879
:1027A000CA6822F49072CA6001684A6922F0010284
:1027B0004A61202180F83A10704710B590F83A101D
:1027C000222901D0022010BD8168B1F5805F11D0AF
:1027D0000169002901681FD0496801F07F03816AFF
:1027E0004A1C82620B70C18D491E0904090CC18507
:1027F00018D026E00269816A002A0268526805D072
:10280000D2B20A80816A491C8162ECE7C2F30802F5
:102810000A80816A891CF7E74A68816A4B1C8362D7
:102820000A70E0E70168CA6822F49072CA60016821
:102830004A6922F001024A61202180F83A10FFF72C
:10284000C3F8002010BD00002DE9F04104460068E7
:10285000016921F44052E168114301612168C868AF
:1028600049F20C6290432369A268E5691A436369DF
:102870002B431A430243CA602168486920F440721E
:10288000A06910434861E1696425B1F5004F97489C
:10289000974A21684FF032083FD0914201D08142DF
:1028A0007CD1FEF75FFA00EBC00101EB001061681C
:1028B0008900B0FBF1F6FEF755FA00EBC00101EB21
:1028C000001061688900B0FBF1F0B0FBF5F06FF02B
:1028D0001801484306EB800108EB0110B0FBF5F04E
:1028E00000F0F006FEF73EFA00EBC00101EB00102D
:1028F00061688900B0FBF1F0B0FBF5F006EB001663
:10290000FEF730FA00EBC00101EB001061688900AE
:10291000B0FBF1F7FEF726FAD2E0914201D08142F6
:102920003DD1FEF71FFA00EBC00101EB001061681A
:102930004900B0FBF1F0B0FBF5F00601FEF712FA2A
:1029400000EBC00101EB001061684900B0FBF1F73A
:10295000FEF708FA00EBC00101EB001061684900C6
:10296000B0FBF1F0B0FBF5F06FF01801484307EB56
:10297000800108EBC100B0FBF5F000F0F80006EBB9
:102980004006FEF7EFF900EBC00101EB00106168B3
:102990004900B0FBF1F7FEF7E5F93CE055E0FEF742
:1029A000C9F900EBC00101EB001061684900B0FB00
:1029B000F1F0B0FBF5F00601FEF7BCF900EBC00149
:1029C00001EB001061684900B0FBF1F7FEF7B2F9C6
:1029D00000EBC00101EB001061684900B0FBF1F0B1
:1029E000B0FBF5F06FF01801484307EB800108EBEE
:1029F000C100B0FBF5F000F0F80006EB4006FEF772
:102A000099F900EBC00101EB001061684900B0FBCF
:102A1000F1F7FEF78FF900EBC00101EB00106168E0
:102A20004900B0FBF1F0B0FBF5F06FF0180148433E
:102A300007EB800108EBC100B0FBF5F000F00700E8
:102A4000216830448860BDE8F081FEF773F900EB3F
:102A5000C00101EB001061688900B0FBF1F6FEF7E0
:102A600069F900EBC00101EB001061688900B0FB5F
:102A7000F1F0B0FBF5F06FF01801484306EB800170
:102A800008EB0110B0FBF5F000F0F006FEF752F98C
:102A900000EBC00101EB001061688900B0FBF1F0B0
:102AA000B0FBF5F006EB0016FEF744F900EBC001B1
:102AB00001EB001061688900B0FBF1F7FEF73AF90D
:102AC00000EBC00101EB001061688900B0FBF1F080
:102AD000B0FBF5F06FF01801484307EB800108EBFD
:102AE0000110B0FBF5F000F00F00A9E70014014061
:102AF0000010014090F83910212901D002207047C0
:102B00008168B1F5805F016A0BD04A1C02620268DD
:102B100009785160C18C491E0904090CC1840ED08A
:102B200017E009880268C1F30801516001690029B2
:102B3000016A02D0491C0162ECE7891CFBE70168CD
:102B4000CA6822F08002CA600068C16841F0400192
:102B5000C1600020704700002DE9F04101220B4FB9
:102B60000C460546160231463846FDF766FF4FF61D
:102B7000FF73224629460648FEF764FF3146384671
:102B8000BDE8F0410022FDF758BF0000001C0240E4
:102B9000040100202DE9F041984617460E460446F0
:102BA000069D1DE0681C1BD02DB1FDF74BFFA0EB6F
:102BB0000800A84214D92068C16821F4D071C1600E
:102BC0002068416921F001014161202084F8390029
:102BD00084F83A00002084F838000320BDE8F08132
:102BE0002068006836EA000004D00020B842D9D03E
:102BF0000020F3E70120F9E70148FEF7D5BD00000A
:102C000004010020FEE700000FB4054B10B503A936
:102C1000044A029800F0CAF810BC5DF814FB0000EA
:102C2000DD3400083800002002E008C8121F08C187
:102C3000002AFAD170477047002001E001C1121F3D
:102C4000002AFBD1704700002DE9FF5FDDE902207B
:102C5000010DDDF838B0024318D044F61050A1F24F
:102C6000FF3141430D140F98012820D0A5EB0B0034
:102C7000401C5FEA000A4FF00004474EDFF81C9149
:102C8000A046504616D5CAF1000728E00F98012447
:102C900043A2012808D0002100980F9BC0E9002121
:102CA000C0E90243BDE8FF9F6FEA0B01F4E7CBF1F7
:102CB0000000DEE7074612E0F80707D02246334659
:102CC00040464946FDF77DFB80468946224633460D
:102CD00010461946FDF775FB04460E467F10002F7F
:102CE000EAD1DDE90201BAF1000F42464B4602DAB1
:102CF000FDF767FB01E0FDF7D6FB04460E46002218
:102D0000284BFDF757FC03D84FF0FF30014607E092
:102D10000022254B20463146FDF7ACFAFDF732FC88
:102D2000102409E0002C0ADB0A220023FDF771FAC7
:102D3000019B30321A55641E50EA0102F2D1641C24
:102D4000019AC4F1110314440F9A012A03D00122FD
:102D500008430DD10AE0084304D000204FF0110BC6
:102D60000F9080E7A3EB0B056D1E0DE05B4504DDC6
:102D70004FF0000205F1010504E003DA4FF0000214
:102D8000A5F10105002AECD000980F99C0E90231A5
:102D9000C0E9004586E70000000024400000F03F45
:102DA000300000000000F0430000E03F2DE9FF4F3D
:102DB00095B09B468946064600250FE2252877D127
:102DC00000242746F84A0121059400E0044316F840
:102DD000013F203B01FA03F01042F7D130782A2856
:102DE00011D06FF02F033078A0F13002092A16D8E5
:102DF000059A44F0020402EB820203EB4202104403
:102E0000761C0590EFE759F8042B0592002A03DAA7
:102E1000504244F40054059044F00204761C30788B
:102E20002E2816D116F8010F44F004042A280DD0DC
:102E30006FF02F023078A0F13003092B09D807EB8F
:102E4000870302EB4303C718761CF3E759F8047BAA
:102E5000761C30786C280FD006DC4C2817D06828F8
:102E60000DD06A2814D104E0742810D07A280FD12C
:102E70000DE044F400140AE044F4801401E044F44A
:102E800040147278824202D104F58014761C761CBC
:102E9000307866280BD013DC582877D009DC00285E
:102EA00075D04528F6D04628F4D047281AD19DE1A0
:102EB00018E0632835D0642879D0652812D195E1CF
:102EC000702873D008DC6728F1D069286FD06E288D
:102ED0000DD06F2806D1B5E073282CD0752875D099
:102EE000782874D05A46179990476D1C75E1C4F341
:102EF0000250022809D003280DD0D9F80010042868
:102F00000DD00D6009F1040967E1D9F80010EA1746
:102F1000C1E90052F6E7D9F800100D80F2E70D7014
:102F2000F0E719F8041B8DF8001000208DF801005F
:102F3000EA46012003E059F804AB4FF0FF30610787
:102F40004FF0000102D40DE008F101018846B942BA
:102F50000FDA8045F8DB1AF808100029F4D108E0F0
:102F600008F1010188468142FADB1AF808100029AD
:102F7000F6D105985B46A0EB080721463846179A1C
:102F800000F094FA284400EB080507E04DE029E141
:102F90000DE01AF8010B5A4617999047B8F101084D
:102FA000F7D25B4621463846179A13E142E00A22DF
:102FB0000092C4F302524FF0000A022A08D059F8D6
:102FC00004CB032A4FEAEC710AD00DE029E02AE095
:102FD00009F1070121F00702F2E802C1914609E078
:102FE0000FFA8CFC4FEAEC71042A03D14FFA8CFCE7
:102FF0004FEAEC71002907DA0A460021DCF1000CE7
:1030000061EB02012D2202E0220504D52B228DF86E
:103010000420012203E0E20701D02022F7E79046D6
:1030200059E00A2102E010220DE010214FF0000AC1
:1030300000910BE010224FF0000A44F0040408272E
:10304000009203E008224FF0000A0092C4F30252FB
:10305000022A05D059F804CB0021032A08D009E040
:1030600009F1070121F00702F2E802C1914605E0EB
:103070001FFA8CFC042A01D10CF0FF0C4FF0000861
:10308000220728D5702806D0009B83F0100353EA4E
:103090000A0305D00EE040228DF80420012208E04A
:1030A0005CEA010206D030228DF804208DF805007C
:1030B00002229046009B83F0080353EA0A030AD1D8
:1030C0005CEA010201D1620705D530228DF80420A7
:1030D0004FF001087F1E582804D034A003900EA89A
:1030E00002900DE036A0F9E753466046009AFDF7DE
:1030F00090F884460398825C0298401E0290027009
:103100005CEA0100F0D1029806A9081A00F1200A31
:10311000600702D524F4803400E00127574502DD22
:10312000A7EB0A0000E0002000EB0A0100900598E0
:103130004144401A0590E00306D45B462146179AA5
:10314000059800F0B3F90544002706E001A85A46A7
:10315000C05D179990476D1C7F1C4745F6DBE00367
:103160000CD55B462146179A059800F09FF9054457
:1031700004E030205A46179990476D1C0099481E6C
:1031800000900029F5DC08E0029802995A46007880
:10319000491C0291179990476D1CBAF10001AAF1E0
:1031A000010AF1DC65E10000092801003031323309
:1031B0003435363738396162636465660000000073
:1031C000303132333435363738394142434445465D
:1031D0000000000000F058F90544761C3078002803
:1031E0007FF4ECAD19B02846BDE8F08F620700D43B
:1031F000062709F1070222F0070CFCE80223E1464A
:1032000003F000485FEA080C02D00FF2702C0DE0CA
:103210005FEA045C02D50FF2682C07E05FEAC47C29
:1032200002D00FF2602C01E0AFF2700C4FF0FF38CB
:1032300023F00043CDF850C065280CD006DC4528AB
:1032400009D046281DD047283DD13DE0662818D03A
:1032500067287ED138E00021112F01DB112000E02A
:10326000781CCDE9000106A90EA8FFF7EDFCDDE909
:103270000F010E9A03910021009207F1010A0491B7
:103280004DE04FF000400097CDE9011006A90EA8CF
:10329000FFF7DAFCDDE90F0203920E9B1199002281
:1032A000DDF80CA00093049211B9791C00EB010A1F
:1032B000B7EB0A0004D4C0F1FF3007F1010A049013
:1032C000AAEB0700019044E0012F00DA012700215A
:1032D000112F01DD112000E03846CDE9000106A9DB
:1032E0000EA8FFF7B1FCDDE90F010E9A0391002152
:1032F00004910092BA4621070CD40399514500DA93
:103300008A46BAF1010F05DD009AAAF10101515C6C
:10331000302908D0B84202DA10F1040F06DA012190
:10332000CDE9011015E0AAF10101E9E7002805DC6B
:10333000049901440491AAEB000102E0411C5145AB
:1033400000DD8A460499401A401C01904FF000406D
:103350000290200704D40198504501DBCDF8048089
:1033600000208DF84F0002980DF14F07B0F1004F8B
:1033700025D02B200E9002984FF0020800280CDA7E
:10338000404202902D200E9007E00A210298FCF79F
:103390002AFF3031029007F8011DB8F10001A8F1B1
:1033A0000108F2DC02980028EFD1791E0E9808700F
:1033B000307800F0200040F0450007F8020D12A818
:1033C000C01B00F107081498007800B1012000EB41
:1033D0000A01019801EBE07105984144401A401E32
:1033E0000590E00306D45B462146179A059800F045
:1033F0005DF805441498007818B15A46179990471B
:103400006D1CE00324D55B462146179A059800F011
:103410004DF805441CE00498002807DBDDE90301B2
:10342000884203DD0098405C179901E0179930202D
:103430005A469047049805F10105401C04900198F4
:10344000401E019004D12E205A46179990476D1CBA
:10345000BAF10001AAF1010ADDDC05E017F8010B61
:103460005A46179990476D1CB8F10001A8F1010860
:10347000F4DC5B462146179A0598ABE62D00000068
:103480002B000000200000002DE9F041044600253B
:103490001E461746880404D405E039462020B0476C
:1034A0006D1C641EF9D52846BDE8F0812DE9F04178
:1034B000044600251E469046C80301D5302700E08B
:1034C0002027880404D505E041463846B0476D1CE6
:1034D000641EF9D52846BDE8F081000013B54FF60B
:1034E000FF73012269460248FEF7ACFA00981CBD42
:1034F0004401002008B5FDF7B3FAFEF76DFFFEF7B3
:1035000039FBFEF7FDFEFEF751FCFDF73DF9FEF736
:103510007BFDFEF773FBA74C0025A5800126667096
:10352000A548FDF7A5FE0021A348FEF7B3F8042146
:10353000A148FEF7AFF808219F48FEF7ABF80C2131
:103540009D48FEF7A7F89D4F002211463846FFF729
:1035500027F8002204213846FFF722F8002208212C
:103560003846FFF71DF800220C213846FFF718F8FF
:10357000DFF84C924FF4006ADFF848B2DFF8488277
:10358000FEF7DCFA012801D1FEF7F0FB6078012894
:1035900041D1A5802069012804D0022806D0032843
:1035A0000CD12EE002221146012002E00222114637
:1035B0001046FEF789FB6420FDF728F92670642089
:1035C000FDF7ACF8FEF728FC6420FDF71FF9FEF7C5
:1035D00095FBFEF721FC6420FDF718F97A48403886
:1035E000036A0093D0E90112B120FEF79BFBFEF7BE
:1035F00013FC6420FDF70AF9FEF784FA012804D0D1
:1036000005E0022211460320D3E7FEF7FDFC2670F9
:103610003220FDF783F8606901282ED1A0690028C7
:103620007DD1012208214846E560FDF706FA012216
:1036300051464846FDF701FA012202215846FDF79E
:10364000FCF9012211026148FDF7F7F9C8F80050B2
:10365000C8F80450C8F80850E57001220021384627
:10366000FEF79EFF012204213846FEF799FF012252
:1036700008213846FEF794FFA661606902282FD121
:10368000A06900284BD1002208214846E660FDF7DA
:10369000D4F9002251464846FDF7CFF90022022115
:1036A0005846FDF7CAF900224FF480714748FDF7EC
:1036B000C4F9C8F80050C8F80450C8F80850E570BC
:1036C000012200213846FEF76BFF01220421384613
:1036D000FEF766FF012208213846FEF761FFA6616A
:1036E0006069032831D1A069002861D10220E0601F
:1036F000012208214846FDF7A0F90122514648461B
:10370000FDF79BF9012202215846FDF796F90122A7
:1037100011022E48FDF791F9C8F8005000E047E08B
:10372000C8F80450C8F80850E57001220021384656
:10373000FEF736FF012204213846FEF731FF012251
:1037400008213846FEF72CFFA661606904282FD1B6
:10375000A06968BB0320E060002208214846FDF70D
:103760006CF9002251464846FDF767F90022022114
:103770005846FDF762F900224FF480711348FDF7B7
:103780005CF9C8F80050C8F80450C8F80850E57053
:10379000012200213846FEF703FF012204213846AA
:1037A000FEF7FEFE012208213846FEF7F9FEA6616B
:1037B0006561E5E6000000208C0000200004014067
:1037C000000C0240001402407C000020000802406F
:1037D00000000000000000000102030406070809C1
:1037E000000000000102030400C1814001C08041CB
:1037F00001C0804100C1814001C0804100C18140C1
:1038000000C1814001C0804101C0804100C18140B0
:1038100000C1814001C0804100C1814001C08041A0
:1038200001C0804100C1814001C0804100C1814090
:1038300000C1814001C0804100C1814001C0804180
:1038400001C0804100C1814000C1814001C0804170
:1038500001C0804100C1814001C0804100C1814060
:1038600000C1814001C0804101C0804100C1814050
:1038700000C1814001C0804100C1814001C0804140
:1038800001C0804100C1814000C1814001C0804130
:1038900001C0804100C1814001C0804100C1814020
:1038A00000C1814001C0804100C1814001C0804110
:1038B00001C0804100C1814001C0804100C1814000
:1038C00000C1814001C0804101C0804100C18140F0
:1038D00000C1814001C0804100C1814001C08041E0
:1038E00001C0804100C1814000C0C101C30302C2C8
:1038F000C60607C705C5C404CC0C0DCD0FCFCE0E30
:103900000ACACB0BC90908C8D81819D91BDBDA1A9F
:103910001EDEDF1FDD1D1CDC14D4D515D71716D60F
:10392000D21213D311D1D010F03031F133F3F2327F
:1039300036F6F737F53534F43CFCFD3DFF3F3EFEEF
:10394000FA3A3BFB39F9F83828E8E929EB2B2AEA5F
:10395000EE2E2FEF2DEDEC2CE42425E527E7E626CF
:1039600022E2E323E12120E0A06061A163A3A2623F
:1039700066A6A767A56564A46CACAD6DAF6F6EAEAF
:10398000AA6A6BAB69A9A86878B8B979BB7B7ABA1F
:10399000BE7E7FBF7DBDBC7CB47475B577B7B6768F
:1039A00072B2B373B17170B05090915193535292FF
:1039B00096565797559594549C5C5D9D5F9F9E5E6F
:1039C0005A9A9B5B99595898884849894B8B8A4ADF
:1039D0004E8E8F4F8D4D4C8C44848545874746864F
:1039E0008242438341818040083A00080000002061
:1039F0003C000000282C0008443A00083C0000204D
:103A00004C130000382C00080000010000000000EA
:103A100000000000000000000000000000000000A6
:103A20000000000000000000000000000024F4007E
:103A3000000000002003B0044006D0070000000092
:043A40000000000082
:040000050800018965
:00000001FF
